:020000040000FA
:04000000FEEF17F008
:1025FA0094500F09946E1200FDEC12F039EC13F0AE
:10260A0010EC13F01200F52FE32FE62FE92FEC2F31
:10261A00EF2FF82FF22FC08EC09AC088C096C090B4
:10262A00C082C094C292C19AC198C46AC36AC28065
:10263A001200100EF66E260EF76E000EF86E00EE01
:10264A0042F010EE10F00900F5CFEEFFE550E15030
:10265A00FAE1576A566A556A546A536A526A000E10
:10266A00F86E000123EF14F0939493861F0E6F16F1
:10267A006F8E800E6E18D8A445EF13F047EF13F053
:10268A003EEF13F0776AE10E706E1B0E716E030E49
:10269A00726E0D01D46B1F0E6F166F50606A1200B6
:1026AA0001C003F0070E0316050E046ED890033618
:1026BA00042E5BEF13F003500F01426F01C003F0C9
:1026CA0002C004F0D89004320332D89004320332A4
:1026DA00D890043203320350416F1200076E07C0CC
:1026EA0003F0D8900336D8900336C250C30B0310B8
:1026FA00C26EC282C2B284EF13F086EF13F07FEF8C
:10270A0013F0C350C4CF03F0046A03C004F0036A91
:10271A000310056E0450066E05C001F006C002F0F3
:10272A00120056505710D8A49DEF13F09FEF13F0E4
:10273A00B0EF13F082500F0B0F0AD8B4A7EF13F0C3
:10274A00A9EF13F0B0EF13F0576A010E566E8250DC
:10275A000F0BBEEF13F082500F0B0F0AD8A4B8EF7D
:10276A0013F0BAEF13F0BDEF13F0576A000E566E6E
:10277A000F0E1200140E1A6EAE0E1B6E230E1C6E76
:10278A00410E1D6E040E73EC13F001C008F002C076
:10279A0009F00A6A0B6A000E50EC15F008C016F030
:1027AA0009C017F00AC018F00BC019F02AEC16F08D
:1027BA0016C02FF017C030F018C031F019C032F02F
:1027CA00CDEC14F02FC039F030C03AF012000F01EE
:1027DA00436B446B05C001F006C002F055EC13F0E0
:1027EA0008C045FF460E0C6E0F0E0D6E0F6A000EE6
:1027FA000E6E0EEF14F007500E24D96EDA6A0E50E0
:10280A000C24E16E0F500D20E26EDFCFE7FF0E4A77
:10281A000F2A0850096E0A6A09500E5C0F50800A86
:10282A000B6E0A50800A0B58D8A01EEF14F020EF46
:10283A0014F000EF14F00F014087120001EC13F0BE
:10284A00BFEC13F039C03FF03AC040F0066A100EF0
:10285A00056E3F0E076E020E086EECEC13F03C6A32
:10286A00960E3B6E3B06D8A03C063B2806E13C2868
:10287A00D8A442EF14F044EF14F037EF14F064ECEC
:10288A0014F0416E066A200E056E410E076E010EA7
:10289A00086EECEC13F03E6AC80E3D6E3D06D8A0F9
:1028AA003E063D2806E13E28D8A45EEF14F060EF0C
:1028BA0014F053EF14F025EF14F0FEEF17F096EC36
:1028CA0013F0016E0E0E0118D8A46EEF14F070EF1B
:1028DA0014F096EF14F054505510D8B477EF14F062
:1028EA0079EF14F07EEF14F0536A000E526E91EFF6
:1028FA0014F0524A532A53BE8CEF14F0535009E194
:10290A00060E525CD8A08CEF14F08EEF14F091EF03
:10291A0014F0536A060E526E556A000E546ECBEFCF
:10292A0014F00D0E0118D8A49DEF14F09FEF14F0C7
:10293A00BCEF14F054505510D8B4A6EF14F0A8EF19
:10294A0014F0AAEF14F079EF14F05206D8A0530647
:10295A0053BEBAEF14F0535006E15204D8B0B8EFA0
:10296A0014F0BAEF14F091EF14F079EF14F00B0EA3
:10297A000118D8A4C3EF14F0C5EF14F0CBEF14F08C
:10298A00556A010E546E536A070E526E5250120067
:10299A0031343234386E3850D8A4D6EF14F0D8EF28
:1029AA0014F0E2EF14F0000E2F6E000E306E000EDF
:1029BA00316E000E326E4FEF15F02FC033F030C07B
:1029CA0034F031C035F032C036F0200EF2EF14F098
:1029DA00D8903632353234323332E82EEDEF14F0F5
:1029EA003350376E318EFF0E2F16FF0E3016FF0E44
:1029FA003116000E3216960E385E38BE09EF15F003
:102A0A0007EF15F01FEF15F03850800A970FD8B06E
:102A1A0011EF15F013EF15F015EF15F0D8EF14F0CC
:102A2A00D8903232313230322F32383E15EF15F02B
:102A3A0037EF15F01F0E386425EF15F027EF15F064
:102A4A002FEF15F0D8EF14F0D8902F3630363136F4
:102A5A00323638063850D8A435EF15F037EF15F06E
:102A6A0029EF15F03750D8B43DEF15F03FEF15F0C8
:102A7A0047EF15F0321E311E301E2F6C000E302229
:102A8A00312232222FC02FF030C030F031C031F065
:102A9A0032C032F01200106E1050D8B457EF15F051
:102AAA0059EF15F07BEF15F00BBE60EF15F05EEFF6
:102ABA0015F07BEF15F008C00CF009C00DF00AC044
:102ACA000EF00BC00FF00C1E0D1E0E1E0F1E0C2A50
:102ADA00000E0D220E220F220CC012F00DC013F0B0
:102AEA000EC014F00FC015F083EF15F008C012F0F5
:102AFA0009C013F00AC014F00BC015F008500910F1
:102B0A000A100B10D8A48CEF15F08EEF15F098EF81
:102B1A0015F0000E086E000E096E000E0A6E000E09
:102B2A000B6E29EF16F0960E116EA2EF15F0112A10
:102B3A00D8901532143213321232000E12140C6E5F
:102B4A00000E13140D6E000E14140E6EFE0E1514E4
:102B5A000F6E0C500D100E100F10D8A4B7EF15F011
:102B6A00B9EF15F09CEF15F0C7EF15F0112A010E19
:102B7A001226000E132214221522D890153214326E
:102B8A0013321232000E12140C6E000E13140D6E54
:102B9A00000E14140E6EFF0E15140F6E0C500D104D
:102BAA000E100F10D8A4DCEF15F0DEEF15F0BBEF16
:102BBA0015F0E6EF15F01106D890123613361436D2
:102BCA00153614BEEBEF15F0EDEF15F0F5EF15F035
:102BDA00020E1160F3EF15F0F5EF15F0E0EF15F0C6
:102BEA0011B0FAEF15F0FCEF15F0FDEF15F0149E99
:102BFA00D890113211C00CF00D6A0E6A0F6A0CC01F
:102C0A000FF00E6A0D6A0C6A0C5012120D50131254
:102C1A000E5014120F5015121050D8B417EF16F0A8
:102C2A0019EF16F021EF16F00BBE20EF16F01EEF8B
:102C3A0016F021EF16F0158E12C008F013C009F035
:102C4A0014C00AF015C00BF012001950800B266E42
:102C5A00195019242D6E18AE35EF16F037EF16F00D
:102C6A0038EF16F02D802D50D8B43EEF16F040EF15
:102C7A0016F054EF16F02D28D8A446EF16F048EFB8
:102C8A0016F050EF16F0000E166E000E176E000EBC
:102C9A00186E000E196E188E196A5CEF16F0000E87
:102CAA00166E000E176E000E186E000E196E1D506D
:102CBA00800B261A1D501D242E6E1CAE67EF16F0CF
:102CCA0069EF16F06AEF16F02E802E50D8B470EF26
:102CDA0016F072EF16F086EF16F02E28D8A478EFC9
:102CEA0016F07AEF16F082EF16F0000E1A6E000E4A
:102CFA001B6E000E1C6E000E1D6E1C8E1D6A8EEF62
:102D0A0016F0000E1A6E000E1B6E000E1C6E000EE0
:102D1A001D6E1A501B101C101D10D8A497EF16F028
:102D2A0099EF16F0B1EF16F0000E166E000E176E40
:102D3A00000E186E000E196E800E18127F0E1912F0
:102D4A002650191216C016F017C017F018C018F03E
:102D5A0019C019F0F0EF17F02D50D8A4B7EF16F0FC
:102D6A00B9EF16F0C3EF16F0000E166E000E176ECE
:102D7A00000E186E000E196EF0EF17F02E502DC0CF
:102D8A001EF01F6A1E5E000E1F5A7F0E1E24276E3B
:102D9A00000E1F20286E16C022F017C023F018C09C
:102DAA0024F019C025F0000E166E000E176E000EE4
:102DBA00186E000E196E000E296E000E2A6E000E95
:102DCA002B6E000E2C6E2E6A23EF17F02E50D8B4FD
:102DDA00F1EF16F0F3EF16F00AEF17F0D89022365B
:102DEA00233624362536D89016361736183619362D
:102DFA002CAE02EF17F004EF17F005EF17F016806C
:102E0A00D89029362A362B362C361A50225C1B507B
:102E1A0023581C5024581D502558D8A017EF17F0D6
:102E2A0019EF17F022EF17F02C8C1A50225E1B5064
:102E3A00235A1C50245A1D50255A2E2A190E2E6424
:102E4A0029EF17F02BEF17F0EBEF16F022502310B3
:102E5A0024102510D8B434EF17F036EF17F04EEFE0
:102E6A0017F029804EEF17F0D89016361736183615
:102E7A0019362CAE43EF17F045EF17F046EF17F06F
:102E8A001680D89029362A362B362C362706D8A013
:102E9A00280618AE53EF17F055EF17F039EF17F071
:102EAA002E6A2CAE5BEF17F05DEF17F081EF17F08B
:102EBA00FF0E29141E6EFF0E2A141F6EFF0E2B140E
:102ECA00206E7F0E2C14216E1E501F102010211010
:102EDA00D8B472EF17F074EF17F078EF17F0010E0D
:102EEA002E6E81EF17F016A07DEF17F07FEF17F027
:102EFA0081EF17F074EF17F02E50D8B487EF17F060
:102F0A0089EF17F0ADEF17F0010E1626000E172203
:102F1A001822192219A094EF17F096EF17F0ADEFC7
:102F2A0017F016C01EF017C01FF018C020F019C005
:102F3A0021F02134213220321F321E321EC016F0F7
:102F4A001FC017F020C018F021C019F0274A282AFC
:102F5A0028BEB8EF17F0285008E12728D8A0B8EF04
:102F6A0017F0BAEF17F0C5EF17F0000E286E2768B2
:102F7A00000E166E000E176E000E186E000E196EF9
:102F8A0028BED2EF17F0285006E12704D8B0D0EFB8
:102F9A0017F0D2EF17F0DEEF17F0286A000E276E4F
:102FAA00000E166E000E176E000E186E000E196EC9
:102FBA00266A27C02DF02DA0E5EF17F0E7EF17F0EE
:102FCA00EAEF17F0188EEBEF17F0189ED8902D3015
:102FDA00196EA5EF16F0120000473100473200477C
:102FEA0033004734004735005F4300474E004752DD
:062FFA0000001EEF13F0C1
:020000040020DA
:08000000FFFFFFFFFFFFFFFF00
:020000040030CA
:0E000000FF071F1FFF8285FF0FC00FE00F409C
:00000001FF
