:020000040000FA
:0400000007EF00F016
:1000080001827BED02F022EF03F00750D96EDA6A25
:10001800DF50356E3550D8B414EF00F016EF00F00D
:100028001EEF00F03650D8A41CEF00F01EEF00F0D1
:100038002EEF00F081503F0B816E8150FC0B816EDA
:10004800D20E046E2F0E056ECC0E066EA8EC02F0D2
:1000580076EF00F03504D8A434EF00F036EF00F066
:1000680046EF00F081503F0B816E81500309816E8D
:10007800D70E046E2F0E056ECC0E066EA8EC02F09D
:1000880076EF00F0020E3518D8A44DEF00F04FEFD0
:1000980000F05FEF00F08150C009816E8150FC0BC9
:1000A800816EDC0E046E2F0E056ECC0E066EA8EC6B
:1000B80002F076EF00F0030E3518D8A466EF00F0D2
:1000C80068EF00F076EF00F08150C009816E815032
:1000D8000309816EE10E046E2F0E056ECC0E066EBE
:1000E800A8EC02F012001050D96EDA6ADF50126ED6
:1000F8001250146E136A1050D96EDA6A010ED9269E
:10010800DF50156E15501310166E1450176EC70E6B
:100118000E6E16C002F017C003F0030E056EE80E4F
:10012800046E10EC02F00250300F61EC03F0C80EC0
:100138000E6E056A640E046E16C002F017C003F056
:1001480010EC02F002C009F003C00AF00C6A0A0EB3
:100158000B6E49EC02F00950300F61EC03F0C90E48
:100168000E6E056A0A0E046E16C002F017C003F080
:1001780010EC02F002C009F003C00AF00C6A0A0E83
:100188000B6E49EC02F00950300F61EC03F0CA0E17
:100198000E6E16C009F017C00AF00C6A0A0E0B6E34
:1001A80049EC02F00950300F61EC03F01200956A37
:1001B8009450F80B946E8290C30E046ECD0EE82E08
:1001C800FED7042EFCD70000000E026E330E05EC9D
:1001D80003F01B0E046E9E0EE82EFED7042EFCD7ED
:1001E80000D0000E026E330E05EC03F0A60EE82ECA
:1001F800FED700D0000E026E330E05EC03F000D0DF
:1002080000D00000000E026E020E05EC03F0A60EF0
:10021800E82EFED700D0000E026E380E05EC03F073
:10022800A60EE82EFED700D0000E026E010E05ECD9
:1002380003F0040E046E3E0EE82EFED7042EFCD703
:10024800000E026E0C0E05EC03F0A60EE82EFED78B
:1002580000D01200200E0A6E180E0B6E220E0C6EC5
:10026800C8EC01F0100E20182110D8A43EEF01F0C0
:1002780040EF01F048EF01F0180E106E22C011F0A7
:100288007DEC01F07CEF01F0200E20182110D8A49D
:1002980050EF01F052EF01F05AEF01F0180E076E1F
:1002A80022C008F03DEC03F07CEF01F0300E20187E
:1002B8002110D8A462EF01F064EF01F06CEF01F0B7
:1002C800180E106E22C011F077EC00F07CEF01F0F0
:1002D800400E20182110D8A474EF01F076EF01F039
:1002E8007CEF01F0180E076E22C008F009EC00F050
:1002F80012001050D96EDA6ADF50126E1250146E66
:10030800136A1050D96EDA6A010ED926DF50156EBD
:1003180015501310166E1450176EC00E0E6E16C0C0
:1003280002F017C003F0056A640E046E10EC02F0C8
:100338000250300F61EC03F0C10E0E6E056A0A0E12
:10034800046E16C002F017C003F010EC02F002C0F1
:1003580009F003C00AF00C6A0A0E0B6E49EC02F0B1
:100368000950300F61EC03F0C20E0E6E16C009F092
:1003780017C00AF00C6A0A0E0B6E49EC02F009501D
:10038800300F61EC03F0120060AECDEF01F0CFEF5B
:1003980001F00BEF02F0E8EC02F00A50D96EDA6ACD
:1003A80002C0DEFF03C0DDFF0C50D96EDA6A65CFEC
:1003B800DFFF660E106E0F0E116E136A000E126EBE
:1003C800F4EF01F012501024D96E13501120DA6E98
:1003D8000B501224E16EE26ADFCFE7FF124A132ABC
:1003E8000C50D96EDA6ADF500D6E0E6A0D50125C31
:1003F8001350800A0F6E0E50800A0F58D8A007EFCE
:1004080002F009EF02F0E6EF01F0609EA4900C50B4
:10041800D96EDA6ADF6A1200076A000E066E0450A7
:100428000510D8B41AEF02F01CEF02F044EF02F006
:10043800010E086E24EF02F0D89004360536082A1B
:1004480005AE29EF02F02BEF02F020EF02F0D89072
:10045800063607360450025C05500358D8A037EF1B
:1004680002F039EF02F03EEF02F00450025E055050
:10047800035A0680D89005320432082E2BEF02F07A
:1004880006C002F007C003F012000B500C10D8B4DD
:1004980050EF02F052EF02F076EF02F0010E0D6E0F
:1004A8005AEF02F0D8900B360C360D2A0CAE5FEFDF
:1004B80002F061EF02F056EF02F00B50095C0C50AD
:1004C8000A58D8A06AEF02F06CEF02F070EF02F061
:1004D8000B50095E0C500A5AD8900C320B320D2E74
:1004E80061EF02F009C009F00AC00AF01200060024
:1004F800F2A481EF02F083EF02F0A6EF02F0F2948B
:10050800080ED624D66E000ED720D76E334A342A6A
:10051800110E331807E1270E3418D8A496EF02F00D
:1005280098EF02F0A6EF02F03650D8B49EEF02F032
:10053800A1EF02F0010EA2EF02F0000E366E346A4F
:10054800000E336E01921100000E026E065005EC8B
:1005580003F0BBEF02F0010E026E04C0F6FF05C007
:10056800F7FF0800F55005EC03F0044A052A04C01B
:10057800F6FF05C0F7FF0800F5500009D8A4C7EF3B
:1005880002F0C9EF02F0AFEF02F0120093949386E5
:100598001F0E6F166F8E800E6E18D8A4D6EF02F05D
:1005A800D8EF02F0CFEF02F0776AE10E706E1B0E03
:1005B800716E030E726E0D01D46B1F0E6F166F50A5
:1005C800606A608A608C12006150046E056AD89077
:1005D80004360536D89004360536D89004360536E4
:1005E8006238E842070B070B066E076A04500610CC
:1005F800086E05500710096E08C002F009C003F024
:100608001200036E02B00BEF03F00EEF03F08282CC
:100618000FEF03F0829203C083FF82848294958E49
:10062800828082928284829483BE1DEF03F01FEF42
:1006380003F016EF03F08290959E1200060EF66EF8
:10064800070EF76E000EF86E00EE23F010EE10F0B5
:100658000900F5CFEEFFE550E150FAE1366A356A58
:10066800346A336A01900192000EF86E000151EF6E
:1006780003F00750D96EDA6ADF50096E0950020D8F
:10068800F350230FD96EDA6ADECF04F0DDCF05F020
:10069800C40E066EA8EC02F012006DEC03F0C10E59
:1006A800046E2F0E056E800E066EA8EC02F02EEC7E
:1006B80001F05BEF03F007EF00F00F6E000E026E23
:1006C8000E5005EC03F0010E026E0F5005EC03F01E
:1006D8001200F28EF28C79EC03F0CAEC02F0DBEC3B
:1006E80000F03C0E936E816A1200D58ED58CD59A97
:1006F800D586D76A060ED66EF28AF2941200F82FC3
:0E070800E62FE92FEC2FEF2FF22FFB2FF52F0E
:102FC000005350202047522052504D2020494E445B
:102FD000200020202020003C2D20200020202D3EFD
:102FE000003C2D2D3E00473100473200473300475B
:0F2FF00034004735005F4300474E004752000052
:020000040020DA
:08000000FFFFFFFFFFFFFFFF00
:020000040030CA
:0E000000FF071F1FFF8285FF0FC00FE00F409C
:00000001FF
