:020000040000FA
:04000000FEEF17F008
:1006000000003250800B3B6E32503224416E31AECE
:100610000CEF03F00EEF03F00FEF03F041804150B9
:10062000D8B415EF03F017EF03F02AEF03F04128D9
:10063000D8A41DEF03F01FEF03F027EF03F0000E27
:100640002F6E000E306E000E316E000E326E318E47
:1006500032EF03F0000E2F6E000E306E000E316E82
:10066000000E326E3650800B3B1A36503624406EE8
:1006700035AE3DEF03F03FEF03F040EF03F0408075
:100680004050D8B446EF03F048EF03F05BEF03F0BF
:100690004028D8A44EEF03F050EF03F058EF03F0DA
:1006A000000E336E000E346E000E356E000E366E88
:1006B000358E63EF03F0000E336E000E346E000EC5
:1006C000356E000E366E4050D8B469EF03F06BEF14
:1006D00003F073EF03F04150D8A471EF03F073EF10
:1006E00003F07DEF03F0000E2F6E000E306E000E53
:1006F000316E000E326E13EF05F035502F02F3CF3E
:1007000046F0F4CF47F046503C6E3D6A3E6A3F6A81
:100710004750426E436A446A456A34503002F3CF10
:1007200046F0F4CF47F046503C26000E3D223E22D4
:100730003F2247504226000E432244224522335096
:100740003102F3CF46F0F4CF47F046503C26000E7E
:100750003D223E223F2247504226000E43224422A1
:1007600045223EC03FF03DC03EF03CC03DF03C6AFB
:1007700033503002F3CF46F0F4CF47F046503C26DA
:1007800047503D22000E3E22000E3F2234502F02E1
:10079000F3CF46F0F4CF47F046503C2647503D2279
:1007A000000E3E22000E3F223EC03FF03DC03EF014
:1007B0003CC03DF03C6A33502F02F3CF46F0F4CFFB
:1007C00047F046503C2647503D22000E3E22000E88
:1007D0003F2235503002F3CF46F0F4CF47F0465079
:1007E000422647504322000E4422000E4522345038
:1007F0003102F3CF46F0F4CF47F04650422647503F
:100800004322000E4422000E452235503102F3CF20
:1008100046F0F4CF47F04650376E4750386E396A8D
:100820003A6A39C03AF038C039F037C038F0376A20
:100830003750422638504322395044223A504522FC
:100840003CC037F03DC038F03EC039F03FC03AF010
:10085000190E30EF04F0D8903A323932383237324C
:10086000E82E2BEF04F037504226385043223950FF
:1008700044223A5045223EC03FF03DC03EF03CC0CD
:100880003DF03C6A405041C037F0386A3726000ED0
:100890003822820E3724466EFF0E3820476E66EFF0
:1008A00004F0D89042364336443645363FAE5BEFCF
:1008B00004F05DEF04F05EEF04F04280D8903C3627
:1008C0003D363E363F364606D8A0470644AE6BEF6F
:1008D00004F06DEF04F051EF04F0406A3FAE73EFA7
:1008E00004F075EF04F099EF04F0FF0E3C14376E3E
:1008F000FF0E3D14386EFF0E3E14396E7F0E3F140E
:100900003A6E3750381039103A10D8B48AEF04F0E4
:100910008CEF04F090EF04F0010E406E99EF04F0BC
:1009200042A095EF04F097EF04F099EF04F08CEFFC
:1009300004F04050D8B49FEF04F0A1EF04F0C5EFED
:1009400004F0010E4226000E43224422452245A017
:10095000ACEF04F0AEEF04F0C5EF04F042C037F0A6
:1009600043C038F044C039F045C03AF03A343A3226
:1009700039323832373237C042F038C043F039C0EC
:1009800044F03AC045F0464A472A47BED0EF04F04B
:10099000475008E14628D8A0D0EF04F0D2EF04F089
:1009A000DCEF04F0000E426E000E436E800E446ECB
:1009B0007F0E456E09EF05F047BEE9EF04F04750A2
:1009C00006E14604D8B0E7EF04F0E9EF04F0F4EFF5
:1009D00004F0000E426E000E436E000E446E000ED8
:1009E000456E3B6A09EF05F046C041F0FF0E421626
:1009F000FF0E43167F0E4416000E451641A003EF6E
:100A000005F005EF05F006EF05F0448ED890413073
:100A1000456E3B50451242C02FF043C030F044C0F9
:100A200031F045C032F012001950800B266E19507B
:100A300019242D6E18AE1FEF05F021EF05F022EFFF
:100A400005F02D802D50D8B428EF05F02AEF05F0E1
:100A50003EEF05F02D28D8A430EF05F032EF05F079
:100A60003AEF05F0000E166E000E176E000E186EAF
:100A7000000E196E188E196A46EF05F0000E166EFC
:100A8000000E176E000E186E000E196E1D50800BB2
:100A9000261A1D501D242E6E1CAE51EF05F053EF8B
:100AA00005F054EF05F02E802E50D8B45AEF05F023
:100AB0005CEF05F070EF05F02E28D8A462EF05F08A
:100AC00064EF05F06CEF05F0000E1A6E000E1B6E61
:100AD000000E1C6E000E1D6E1C8E1D6A78EF05F058
:100AE000000E1A6E000E1B6E000E1C6E000E1D6EA8
:100AF0001A501B101C101D10D8A481EF05F083EFB5
:100B000005F09BEF05F0000E166E000E176E000E3E
:100B1000186E000E196E800E18127F0E19122650D4
:100B2000191216C016F017C017F018C018F019C027
:100B300019F0DAEF06F02D50D8A4A1EF05F0A3EFDD
:100B400005F0ADEF05F0000E166E000E176E000EEC
:100B5000186E000E196EDAEF06F02E502DC01EF042
:100B60001F6A1E5E000E1F5A7F0E1E24276E000E87
:100B70001F20286E16C022F017C023F018C024F0E2
:100B800019C025F0000E166E000E176E000E186EBE
:100B9000000E196E000E296E000E2A6E000E2B6ECE
:100BA000000E2C6E2E6A0DEF06F02E50D8B4DBEF3F
:100BB00005F0DDEF05F0F4EF05F0D890223623368E
:100BC00024362536D89016361736183619362CAEF8
:100BD000ECEF05F0EEEF05F0EFEF05F01680D890A2
:100BE00029362A362B362C361A50225C1B502358B5
:100BF0001C5024581D502558D8A001EF06F003EFD3
:100C000006F00CEF06F02C8C1A50225E1B50235A73
:100C10001C50245A1D50255A2E2A190E2E6413EFEB
:100C200006F015EF06F0D5EF05F022502310241042
:100C30002510D8B41EEF06F020EF06F038EF06F0CE
:100C4000298038EF06F0D890163617361836193640
:100C50002CAE2DEF06F02FEF06F030EF06F01680E9
:100C6000D89029362A362B362C362706D8A02806C7
:100C700018AE3DEF06F03FEF06F023EF06F02E6AC8
:100C80002CAE45EF06F047EF06F06BEF06F0FF0ED7
:100C900029141E6EFF0E2A141F6EFF0E2B14206ED9
:100CA0007F0E2C14216E1E501F1020102110D8B45E
:100CB0005CEF06F05EEF06F062EF06F0010E2E6EBE
:100CC0006BEF06F016A067EF06F069EF06F06BEF2A
:100CD00006F05EEF06F02E50D8B471EF06F073EF19
:100CE00006F097EF06F0010E1626000E17221822C6
:100CF000192219A07EEF06F080EF06F097EF06F0BC
:100D000016C01EF017C01FF018C020F019C021F047
:100D10002134213220321F321E321EC016F01FC075
:100D200017F020C018F021C019F0274A282A28BE41
:100D3000A2EF06F0285008E12728D8A0A2EF06F07D
:100D4000A4EF06F0AFEF06F0000E286E2768000E45
:100D5000166E000E176E000E186E000E196E28BE6D
:100D6000BCEF06F0285006E12704D8B0BAEF06F031
:100D7000BCEF06F0C8EF06F0286A000E276E000EE2
:100D8000166E000E176E000E186E000E196E266A93
:100D900027C02DF02DA0CFEF06F0D1EF06F0D4EF55
:100DA00006F0188ED5EF06F0189ED8902D30196EEB
:100DB0008FEF05F01200106E1050D8B4E2EF06F07D
:100DC000E4EF06F006EF07F00BBEEBEF06F0E9EFFD
:100DD00006F006EF07F008C00CF009C00DF00AC0DD
:100DE0000EF00BC00FF00C1E0D1E0E1E0F1E0C2A57
:100DF000000E0D220E220F220CC012F00DC013F0B7
:100E00000EC014F00FC015F00EEF07F008C012F07E
:100E100009C013F00AC014F00BC015F008500910F7
:100E20000A100B10D8A417EF07F019EF07F023EF03
:100E300007F0000E086E000E096E000E0A6E000E1E
:100E40000B6EB4EF07F0960E116E2DEF07F0112A1E
:100E5000D8901532143213321232000E12140C6E66
:100E6000000E13140D6E000E14140E6EFE0E1514EB
:100E70000F6E0C500D100E100F10D8A442EF07F09B
:100E800044EF07F027EF07F052EF07F0112A010EA9
:100E90001226000E132214221522D8901532143275
:100EA00013321232000E12140C6E000E13140D6E5B
:100EB000000E14140E6EFF0E15140F6E0C500D1054
:100EC0000E100F10D8A467EF07F069EF07F046EF98
:100ED00007F071EF07F01106D8901236133614366A
:100EE000153614BE76EF07F078EF07F080EF07F0C5
:100EF000020E11607EEF07F080EF07F06BEF07F056
:100F000011B085EF07F087EF07F088EF07F0149E28
:100F1000D890113211C00CF00D6A0E6A0F6A0CC025
:100F20000FF00E6A0D6A0C6A0C5012120D5013125B
:100F30000E5014120F5015121050D8B4A2EF07F033
:100F4000A4EF07F0ACEF07F00BBEABEF07F0A9EF93
:100F500007F0ACEF07F0158E12C008F013C009F0CF
:100F600014C00AF015C00BF012004A344B34516E15
:100F70005150D8A4BEEF07F0C0EF07F0CAEF07F05A
:100F8000000E486E000E496E000E4A6E000E4B6E4B
:100F900037EF08F048C04CF049C04DF04AC04EF061
:100FA0004BC04FF0200EDAEF07F0D8904F324E32A0
:100FB0004D324C32E82ED5EF07F04C50506E4A8E31
:100FC000FF0E4816FF0E4916FF0E4A16000E4B166E
:100FD000960E515E51BEF1EF07F0EFEF07F007EF0D
:100FE00008F05150800A970FD8B0F9EF07F0FBEFE7
:100FF00007F0FDEF07F0C0EF07F0D8904B324A3210
:1010000049324832513EFDEF07F01FEF08F01F0E46
:1010100051640DEF08F00FEF08F017EF08F0C0EF84
:1010200007F0D890483649364A364B36510651506B
:10103000D8A41DEF08F01FEF08F011EF08F0505092
:10104000D8B425EF08F027EF08F02FEF08F04B1E7B
:101050004A1E491E486C000E49224A224B2248C0B3
:1010600048F049C049F04AC04AF04BC04BF012006A
:1010700049EC09F0016E0E0E0118D8A442EF08F0F9
:1010800044EF08F048EF08F0010E5D6E6DEF08F0D8
:101090000D0E0118D8A44FEF08F051EF08F055EFEE
:1010A00008F0020E5D6E6DEF08F00B0E0118D8A46B
:1010B0005CEF08F05EEF08F062EF08F0030E5D6E83
:1010C0006DEF08F0070E0118D8A469EF08F06BEF78
:1010D00008F06DEF08F0040E5D6E5D04D8A473EFA8
:1010E00008F075EF08F078EF08F0010E91EF08F0C6
:1010F000020E5D18D8A47FEF08F081EF08F084EFAE
:1011000008F0020E91EF08F0030E5D18D8A48BEFE3
:1011100008F08DEF08F090EF08F0030E91EF08F063
:10112000000E1200DDEC09F0D3EC08F052C058F0CC
:1011300053C059F0066A300E056E580E076E020E47
:10114000086E12EC09F0556A320E546E5406D8A09F
:101150005506542806E15528D8A4B1EF08F0B3EF9E
:1011600008F0A6EF08F038EC08F05A6E066A400E58
:10117000056E5A0E076E010E086E12EC09F0576AE2
:10118000640E566E5606D8A05706562806E1572814
:10119000D8A4CDEF08F0CFEF08F0C2EF08F094EF3D
:1011A00008F0FEEF17F0000E336E000E346E700E76
:1011B000356E420E366E140E1A6EAE0E1B6E230E78
:1011C0001C6E410E1D6E040E72EC09F001C008F099
:1011D00002C009F00A6A0B6A000EDBEC06F008C0D8
:1011E00016F009C017F00AC018F00BC019F014EC83
:1011F00005F016C02FF017C030F018C031F019C03C
:1012000032F001EC03F02FC048F030C049F031C09B
:101210004AF032C04BF0B5EC07F048C052F049C07C
:1012200053F012000F01436B446B05C001F006C080
:1012300002F095EC09F008C045FF460E0C6E0F0E4B
:101240000D6E0F6A000E0E6E34EF09F007500E247B
:10125000D96EDA6A0E500C24E16E0F500D20E26E4A
:10126000DFCFE7FF0E4A0F2A0850096E0A6A0950BD
:101270000E5C0F50800A0B6E0A50800A0B58D8A0E3
:1012800044EF09F046EF09F026EF09F00F0140871F
:1012900012005B505C10D8A450EF09F052EF09F037
:1012A00063EF09F082500F0B0F0AD8B45AEF09F020
:1012B0005CEF09F063EF09F05C6A010E5B6E82502F
:1012C0000F0B71EF09F082500F0B0F0AD8A46BEFD0
:1012D00009F06DEF09F070EF09F05C6A000E5B6ECB
:1012E0000F0E1200076E07C003F0D8900336D89097
:1012F0000336C250C30B0310C26EC282C2B283EF68
:1013000009F085EF09F07EEF09F0C350C4CF03F078
:10131000046A03C004F0036A0310056E0450066EED
:1013200005C001F006C002F0120001C003F0070E74
:101330000316050E046ED8900336042E9BEF09F0B9
:1013400003500F01426F01C003F002C004F0D890B7
:1013500004320332D89004320332D890043203327C
:101360000350416F1200939493861F0E6F166F8E79
:10137000800E6E18D8A4BFEF09F0C1EF09F0B8EFE6
:1013800009F0776AE10E706E1B0E716E030E726EBD
:101390000D01D46B1F0E6F166F50606A1200C08E65
:1013A000C09AC088C096C090C082C094C292C19AB0
:1013B000C198C46AC36AC2801200EAEC09F0B3ECB7
:1013C00009F0CFEC09F012005D6A5C6A5B6A00010B
:0C13D00092EF08F094500F09946E120088
:042FFC00E4EF09F005
:020000040020DA
:08000000FFFFFFFFFFFFFFFF00
:020000040030CA
:0E000000FF071F1FFF8285FF0FC00FE00F409C
:00000001FF
